{
  "_format": "hh-sol-artifact-1",
  "contractName": "VotingSystem",
  "sourceName": "contracts/VotingSystem.sol",
  "abi": [
    {
      "inputs": [],
      "stateMutability": "nonpayable",
      "type": "constructor"
    },
    {
      "inputs": [
        {
          "internalType": "uint256",
          "name": "voteID",
          "type": "uint256"
        },
        {
          "internalType": "address",
          "name": "voterAddress",
          "type": "address"
        },
        {
          "internalType": "uint256",
          "name": "groupId",
          "type": "uint256"
        }
      ],
      "name": "addVoter",
      "outputs": [],
      "stateMutability": "nonpayable",
      "type": "function"
    },
    {
      "inputs": [
        {
          "internalType": "uint256",
          "name": "voteID",
          "type": "uint256"
        },
        {
          "internalType": "uint256",
          "name": "optionIndex",
          "type": "uint256"
        }
      ],
      "name": "castVote",
      "outputs": [],
      "stateMutability": "nonpayable",
      "type": "function"
    },
    {
      "inputs": [
        {
          "internalType": "uint256",
          "name": "voteID",
          "type": "uint256"
        },
        {
          "internalType": "string",
          "name": "voteName",
          "type": "string"
        },
        {
          "internalType": "uint256",
          "name": "startTime",
          "type": "uint256"
        },
        {
          "internalType": "uint256",
          "name": "duration",
          "type": "uint256"
        },
        {
          "internalType": "uint256",
          "name": "groupId",
          "type": "uint256"
        },
        {
          "internalType": "string[]",
          "name": "voting_options",
          "type": "string[]"
        }
      ],
      "name": "createVote",
      "outputs": [],
      "stateMutability": "nonpayable",
      "type": "function"
    },
    {
      "inputs": [
        {
          "internalType": "uint256",
          "name": "voteID",
          "type": "uint256"
        },
        {
          "internalType": "uint256",
          "name": "optionsCount",
          "type": "uint256"
        }
      ],
      "name": "getVoteResults",
      "outputs": [
        {
          "internalType": "uint256[]",
          "name": "",
          "type": "uint256[]"
        }
      ],
      "stateMutability": "view",
      "type": "function"
    },
    {
      "inputs": [
        {
          "internalType": "uint256",
          "name": "",
          "type": "uint256"
        }
      ],
      "name": "votes",
      "outputs": [
        {
          "internalType": "string",
          "name": "voteName",
          "type": "string"
        },
        {
          "internalType": "uint256",
          "name": "voteID",
          "type": "uint256"
        },
        {
          "internalType": "uint256",
          "name": "startVoteTime",
          "type": "uint256"
        },
        {
          "internalType": "uint256",
          "name": "endVoteTime",
          "type": "uint256"
        },
        {
          "internalType": "uint256",
          "name": "groupId",
          "type": "uint256"
        }
      ],
      "stateMutability": "view",
      "type": "function"
    }
  ],
  "bytecode": "0x608060405234801561001057600080fd5b50336000806101000a81548173ffffffffffffffffffffffffffffffffffffffff021916908373ffffffffffffffffffffffffffffffffffffffff160217905550611808806100606000396000f3fe608060405234801561001057600080fd5b50600436106100575760003560e01c8063020ae0091461005c5780632c0a3f89146100785780635df81330146100945780639efc3883146100c8578063c6e6a82b146100f8575b600080fd5b61007660048036038101906100719190610b5d565b610114565b005b610092600480360381019061008d9190610bb0565b6103d7565b005b6100ae60048036038101906100a99190610bf0565b610755565b6040516100bf959493929190610cbc565b60405180910390f35b6100e260048036038101906100dd9190610bb0565b610813565b6040516100ef9190610dd4565b60405180910390f35b610112600480360381019061010d9190611011565b6108cf565b005b60008054906101000a900473ffffffffffffffffffffffffffffffffffffffff1673ffffffffffffffffffffffffffffffffffffffff163373ffffffffffffffffffffffffffffffffffffffff16146101a2576040517f08c379a000000000000000000000000000000000000000000000000000000000815260040161019990611148565b60405180910390fd5b600160008481526020019081526020016000206003015442106101fa576040517f08c379a00000000000000000000000000000000000000000000000000000000081526004016101f1906111b4565b60405180910390fd5b6001600084815260200190815260200160002060050160008373ffffffffffffffffffffffffffffffffffffffff1673ffffffffffffffffffffffffffffffffffffffff16815260200190815260200160002060000160149054906101000a900460ff1661029d576040517f08c379a000000000000000000000000000000000000000000000000000000000815260040161029490611246565b60405180910390fd5b6040518060a001604052808373ffffffffffffffffffffffffffffffffffffffff16815260200160011515815260200160001515815260200160008152602001828152506001600085815260200190815260200160002060050160008473ffffffffffffffffffffffffffffffffffffffff1673ffffffffffffffffffffffffffffffffffffffff16815260200190815260200160002060008201518160000160006101000a81548173ffffffffffffffffffffffffffffffffffffffff021916908373ffffffffffffffffffffffffffffffffffffffff16021790555060208201518160000160146101000a81548160ff02191690831515021790555060408201518160000160156101000a81548160ff0219169083151502179055506060820151816001015560808201518160020155905050505050565b6001600083815260200190815260200160002060050160003373ffffffffffffffffffffffffffffffffffffffff1673ffffffffffffffffffffffffffffffffffffffff16815260200190815260200160002060000160149054906101000a900460ff1661047a576040517f08c379a0000000000000000000000000000000000000000000000000000000008152600401610471906112d8565b60405180910390fd5b6001600083815260200190815260200160002060050160003373ffffffffffffffffffffffffffffffffffffffff1673ffffffffffffffffffffffffffffffffffffffff16815260200190815260200160002060000160159054906101000a900460ff161561051e576040517f08c379a000000000000000000000000000000000000000000000000000000000815260040161051590611344565b60405180910390fd5b6001600083815260200190815260200160002060020154421015801561055a575060016000838152602001908152602001600020600301544211155b610599576040517f08c379a0000000000000000000000000000000000000000000000000000000008152600401610590906113b0565b60405180910390fd5b6001600083815260200190815260200160002060050160003373ffffffffffffffffffffffffffffffffffffffff1673ffffffffffffffffffffffffffffffffffffffff16815260200190815260200160002060020154600160008481526020019081526020016000206006015414610647576040517f08c379a000000000000000000000000000000000000000000000000000000000815260040161063e90611442565b60405180910390fd5b600180600084815260200190815260200160002060050160003373ffffffffffffffffffffffffffffffffffffffff1673ffffffffffffffffffffffffffffffffffffffff16815260200190815260200160002060000160156101000a81548160ff021916908315150217905550806001600084815260200190815260200160002060050160003373ffffffffffffffffffffffffffffffffffffffff1673ffffffffffffffffffffffffffffffffffffffff1681526020019081526020016000206001018190555060018060008481526020019081526020016000206004016000838152602001908152602001600020600101600082825461074a9190611491565b925050819055505050565b6001602052806000526040600020600091509050806000018054610778906114f4565b80601f01602080910402602001604051908101604052809291908181526020018280546107a4906114f4565b80156107f15780601f106107c6576101008083540402835291602001916107f1565b820191906000526020600020905b8154815290600101906020018083116107d457829003601f168201915b5050505050908060010154908060020154908060030154908060060154905085565b606060008267ffffffffffffffff81111561083157610830610e00565b5b60405190808252806020026020018201604052801561085f5781602001602082028036833780820191505090505b50905060005b838110156108c457600160008681526020019081526020016000206004016000828152602001908152602001600020600101548282815181106108ab576108aa611525565b5b6020026020010181815250508080600101915050610865565b508091505092915050565b60008054906101000a900473ffffffffffffffffffffffffffffffffffffffff1673ffffffffffffffffffffffffffffffffffffffff163373ffffffffffffffffffffffffffffffffffffffff161461095d576040517f08c379a000000000000000000000000000000000000000000000000000000000815260040161095490611148565b60405180910390fd5b8560016000888152602001908152602001600020600101819055508460016000888152602001908152602001600020600001908161099b9190611700565b5083426109a89190611491565b60016000888152602001908152602001600020600201819055508260016000888152602001908152602001600020600201546109e49190611491565b600160008881526020019081526020016000206003018190555081600160008881526020019081526020016000206006018190555060005b8151811015610aac576040518060400160405280838381518110610a4357610a42611525565b5b6020026020010151815260200160008152506001600089815260200190815260200160002060040160008381526020019081526020016000206000820151816000019081610a919190611700565b50602082015181600101559050508080600101915050610a1c565b50505050505050565b6000604051905090565b600080fd5b600080fd5b6000819050919050565b610adc81610ac9565b8114610ae757600080fd5b50565b600081359050610af981610ad3565b92915050565b600073ffffffffffffffffffffffffffffffffffffffff82169050919050565b6000610b2a82610aff565b9050919050565b610b3a81610b1f565b8114610b4557600080fd5b50565b600081359050610b5781610b31565b92915050565b600080600060608486031215610b7657610b75610abf565b5b6000610b8486828701610aea565b9350506020610b9586828701610b48565b9250506040610ba686828701610aea565b9150509250925092565b60008060408385031215610bc757610bc6610abf565b5b6000610bd585828601610aea565b9250506020610be685828601610aea565b9150509250929050565b600060208284031215610c0657610c05610abf565b5b6000610c1484828501610aea565b91505092915050565b600081519050919050565b600082825260208201905092915050565b60005b83811015610c57578082015181840152602081019050610c3c565b60008484015250505050565b6000601f19601f8301169050919050565b6000610c7f82610c1d565b610c898185610c28565b9350610c99818560208601610c39565b610ca281610c63565b840191505092915050565b610cb681610ac9565b82525050565b600060a0820190508181036000830152610cd68188610c74565b9050610ce56020830187610cad565b610cf26040830186610cad565b610cff6060830185610cad565b610d0c6080830184610cad565b9695505050505050565b600081519050919050565b600082825260208201905092915050565b6000819050602082019050919050565b610d4b81610ac9565b82525050565b6000610d5d8383610d42565b60208301905092915050565b6000602082019050919050565b6000610d8182610d16565b610d8b8185610d21565b9350610d9683610d32565b8060005b83811015610dc7578151610dae8882610d51565b9750610db983610d69565b925050600181019050610d9a565b5085935050505092915050565b60006020820190508181036000830152610dee8184610d76565b905092915050565b600080fd5b600080fd5b7f4e487b7100000000000000000000000000000000000000000000000000000000600052604160045260246000fd5b610e3882610c63565b810181811067ffffffffffffffff82111715610e5757610e56610e00565b5b80604052505050565b6000610e6a610ab5565b9050610e768282610e2f565b919050565b600067ffffffffffffffff821115610e9657610e95610e00565b5b610e9f82610c63565b9050602081019050919050565b82818337600083830152505050565b6000610ece610ec984610e7b565b610e60565b905082815260208101848484011115610eea57610ee9610dfb565b5b610ef5848285610eac565b509392505050565b600082601f830112610f1257610f11610df6565b5b8135610f22848260208601610ebb565b91505092915050565b600067ffffffffffffffff821115610f4657610f45610e00565b5b602082029050602081019050919050565b600080fd5b6000610f6f610f6a84610f2b565b610e60565b90508083825260208201905060208402830185811115610f9257610f91610f57565b5b835b81811015610fd957803567ffffffffffffffff811115610fb757610fb6610df6565b5b808601610fc48982610efd565b85526020850194505050602081019050610f94565b5050509392505050565b600082601f830112610ff857610ff7610df6565b5b8135611008848260208601610f5c565b91505092915050565b60008060008060008060c0878903121561102e5761102d610abf565b5b600061103c89828a01610aea565b965050602087013567ffffffffffffffff81111561105d5761105c610ac4565b5b61106989828a01610efd565b955050604061107a89828a01610aea565b945050606061108b89828a01610aea565b935050608061109c89828a01610aea565b92505060a087013567ffffffffffffffff8111156110bd576110bc610ac4565b5b6110c989828a01610fe3565b9150509295509295509295565b7f4f6e6c79207468652041646d696e6973747261746f7220616c6c6f776564206d60008201527f616b65207468697320616374696f6e0000000000000000000000000000000000602082015250565b6000611132602f83610c28565b915061113d826110d6565b604082019050919050565b6000602082019050818103600083015261116181611125565b9050919050565b7f566f74696e672074696d652068617320656e6465642e00000000000000000000600082015250565b600061119e601683610c28565b91506111a982611168565b602082019050919050565b600060208201905081810360008301526111cd81611191565b9050919050565b7f54686520766f74657220657869737420616c726561647920617420746865207360008201527f797374656d2e0000000000000000000000000000000000000000000000000000602082015250565b6000611230602683610c28565b915061123b826111d4565b604082019050919050565b6000602082019050818103600083015261125f81611223565b9050919050565b7f566f746572206973206e6f74207265676973746572656420666f72207468697360008201527f20766f74652e0000000000000000000000000000000000000000000000000000602082015250565b60006112c2602683610c28565b91506112cd82611266565b604082019050919050565b600060208201905081810360008301526112f1816112b5565b9050919050565b7f566f7465722068617320616c726561647920766f7465642e0000000000000000600082015250565b600061132e601883610c28565b9150611339826112f8565b602082019050919050565b6000602082019050818103600083015261135d81611321565b9050919050565b7f566f74696e67206973206e6f742063757272656e746c79206163746976652e00600082015250565b600061139a601f83610c28565b91506113a582611364565b602082019050919050565b600060208201905081810360008301526113c98161138d565b9050919050565b7f566f746572206973206e6f742070617274206f66207468652067726f7570206660008201527f6f72207468697320766f74652e00000000000000000000000000000000000000602082015250565b600061142c602d83610c28565b9150611437826113d0565b604082019050919050565b6000602082019050818103600083015261145b8161141f565b9050919050565b7f4e487b7100000000000000000000000000000000000000000000000000000000600052601160045260246000fd5b600061149c82610ac9565b91506114a783610ac9565b92508282019050808211156114bf576114be611462565b5b92915050565b7f4e487b7100000000000000000000000000000000000000000000000000000000600052602260045260246000fd5b6000600282049050600182168061150c57607f821691505b60208210810361151f5761151e6114c5565b5b50919050565b7f4e487b7100000000000000000000000000000000000000000000000000000000600052603260045260246000fd5b60008190508160005260206000209050919050565b60006020601f8301049050919050565b600082821b905092915050565b6000600883026115b67fffffffffffffffffffffffffffffffffffffffffffffffffffffffffffffffff82611579565b6115c08683611579565b95508019841693508086168417925050509392505050565b6000819050919050565b60006115fd6115f86115f384610ac9565b6115d8565b610ac9565b9050919050565b6000819050919050565b611617836115e2565b61162b61162382611604565b848454611586565b825550505050565b600090565b611640611633565b61164b81848461160e565b505050565b5b8181101561166f57611664600082611638565b600181019050611651565b5050565b601f8211156116b45761168581611554565b61168e84611569565b8101602085101561169d578190505b6116b16116a985611569565b830182611650565b50505b505050565b600082821c905092915050565b60006116d7600019846008026116b9565b1980831691505092915050565b60006116f083836116c6565b9150826002028217905092915050565b61170982610c1d565b67ffffffffffffffff81111561172257611721610e00565b5b61172c82546114f4565b611737828285611673565b600060209050601f83116001811461176a5760008415611758578287015190505b61176285826116e4565b8655506117ca565b601f19841661177886611554565b60005b828110156117a05784890151825560018201915060208501945060208101905061177b565b868310156117bd57848901516117b9601f8916826116c6565b8355505b6001600288020188555050505b50505050505056fea2646970667358221220ebcea5a5b57bd2d42d033d7ce9ca9fe8b5e811d79a285e6c4d7d071480b3d58964736f6c63430008180033",
  "linkReferences": {},
  "deployedLinkReferences": {}
}