{
  "_format": "hh-sol-artifact-1",
  "contractName": "VotingSystem",
  "sourceName": "contracts/VotingSystem.sol",
  "abi": [
    {
      "inputs": [],
      "stateMutability": "nonpayable",
      "type": "constructor"
    },
    {
      "inputs": [
        {
          "internalType": "uint256",
          "name": "voteID",
          "type": "uint256"
        },
        {
          "internalType": "address",
          "name": "voterAddress",
          "type": "address"
        },
        {
          "internalType": "uint256",
          "name": "groupId",
          "type": "uint256"
        }
      ],
      "name": "addVoter",
      "outputs": [],
      "stateMutability": "nonpayable",
      "type": "function"
    },
    {
      "inputs": [
        {
          "internalType": "uint256",
          "name": "voteID",
          "type": "uint256"
        },
        {
          "internalType": "uint256",
          "name": "optionIndex",
          "type": "uint256"
        }
      ],
      "name": "castVote",
      "outputs": [],
      "stateMutability": "nonpayable",
      "type": "function"
    },
    {
      "inputs": [
        {
          "internalType": "uint256",
          "name": "voteID",
          "type": "uint256"
        },
        {
          "internalType": "string",
          "name": "voteName",
          "type": "string"
        },
        {
          "internalType": "uint256",
          "name": "startTime",
          "type": "uint256"
        },
        {
          "internalType": "uint256",
          "name": "duration",
          "type": "uint256"
        },
        {
          "internalType": "uint256",
          "name": "groupId",
          "type": "uint256"
        },
        {
          "internalType": "string[]",
          "name": "voting_options",
          "type": "string[]"
        }
      ],
      "name": "createVote",
      "outputs": [],
      "stateMutability": "nonpayable",
      "type": "function"
    },
    {
      "inputs": [
        {
          "internalType": "uint256",
          "name": "voteID",
          "type": "uint256"
        },
        {
          "internalType": "uint256",
          "name": "optionIndex",
          "type": "uint256"
        }
      ],
      "name": "getOptionDetails",
      "outputs": [
        {
          "internalType": "string",
          "name": "optionName",
          "type": "string"
        },
        {
          "internalType": "uint256",
          "name": "countOption",
          "type": "uint256"
        }
      ],
      "stateMutability": "view",
      "type": "function"
    },
    {
      "inputs": [
        {
          "internalType": "uint256",
          "name": "voteID",
          "type": "uint256"
        }
      ],
      "name": "getOptionsCount",
      "outputs": [
        {
          "internalType": "uint256",
          "name": "",
          "type": "uint256"
        }
      ],
      "stateMutability": "view",
      "type": "function"
    },
    {
      "inputs": [
        {
          "internalType": "uint256",
          "name": "voteID",
          "type": "uint256"
        },
        {
          "internalType": "uint256",
          "name": "optionsCount",
          "type": "uint256"
        }
      ],
      "name": "getVoteResults",
      "outputs": [
        {
          "internalType": "uint256[]",
          "name": "",
          "type": "uint256[]"
        }
      ],
      "stateMutability": "view",
      "type": "function"
    },
    {
      "inputs": [
        {
          "internalType": "uint256",
          "name": "",
          "type": "uint256"
        }
      ],
      "name": "votes",
      "outputs": [
        {
          "internalType": "string",
          "name": "voteName",
          "type": "string"
        },
        {
          "internalType": "uint256",
          "name": "voteID",
          "type": "uint256"
        },
        {
          "internalType": "uint256",
          "name": "startVoteTime",
          "type": "uint256"
        },
        {
          "internalType": "uint256",
          "name": "endVoteTime",
          "type": "uint256"
        },
        {
          "internalType": "uint256",
          "name": "groupId",
          "type": "uint256"
        },
        {
          "internalType": "uint256",
          "name": "optionsCount",
          "type": "uint256"
        }
      ],
      "stateMutability": "view",
      "type": "function"
    }
  ],
  "bytecode": "0x608060405234801561001057600080fd5b50336000806101000a81548173ffffffffffffffffffffffffffffffffffffffff021916908373ffffffffffffffffffffffffffffffffffffffff1602179055506119fa806100606000396000f3fe608060405234801561001057600080fd5b506004361061007d5760003560e01c80635df813301161005b5780635df81330146100ea5780639efc38831461011f578063c6e6a82b1461014f578063e11902431461016b5761007d565b8063020ae009146100825780632c0a3f891461009e578063517a6257146100ba575b600080fd5b61009c60048036038101906100979190610cf6565b61019c565b005b6100b860048036038101906100b39190610d49565b61045f565b005b6100d460048036038101906100cf9190610d89565b6107dd565b6040516100e19190610dc5565b60405180910390f35b61010460048036038101906100ff9190610d89565b6107fd565b60405161011696959493929190610e70565b60405180910390f35b61013960048036038101906101349190610d49565b6108c1565b6040516101469190610f96565b60405180910390f35b610169600480360381019061016491906111d3565b61097d565b005b61018560048036038101906101809190610d49565b610b7f565b604051610193929190611298565b60405180910390f35b60008054906101000a900473ffffffffffffffffffffffffffffffffffffffff1673ffffffffffffffffffffffffffffffffffffffff163373ffffffffffffffffffffffffffffffffffffffff161461022a576040517f08c379a00000000000000000000000000000000000000000000000000000000081526004016102219061133a565b60405180910390fd5b60016000848152602001908152602001600020600301544210610282576040517f08c379a0000000000000000000000000000000000000000000000000000000008152600401610279906113a6565b60405180910390fd5b6001600084815260200190815260200160002060050160008373ffffffffffffffffffffffffffffffffffffffff1673ffffffffffffffffffffffffffffffffffffffff16815260200190815260200160002060000160149054906101000a900460ff16610325576040517f08c379a000000000000000000000000000000000000000000000000000000000815260040161031c90611438565b60405180910390fd5b6040518060a001604052808373ffffffffffffffffffffffffffffffffffffffff16815260200160011515815260200160001515815260200160008152602001828152506001600085815260200190815260200160002060050160008473ffffffffffffffffffffffffffffffffffffffff1673ffffffffffffffffffffffffffffffffffffffff16815260200190815260200160002060008201518160000160006101000a81548173ffffffffffffffffffffffffffffffffffffffff021916908373ffffffffffffffffffffffffffffffffffffffff16021790555060208201518160000160146101000a81548160ff02191690831515021790555060408201518160000160156101000a81548160ff0219169083151502179055506060820151816001015560808201518160020155905050505050565b6001600083815260200190815260200160002060050160003373ffffffffffffffffffffffffffffffffffffffff1673ffffffffffffffffffffffffffffffffffffffff16815260200190815260200160002060000160149054906101000a900460ff16610502576040517f08c379a00000000000000000000000000000000000000000000000000000000081526004016104f9906114ca565b60405180910390fd5b6001600083815260200190815260200160002060050160003373ffffffffffffffffffffffffffffffffffffffff1673ffffffffffffffffffffffffffffffffffffffff16815260200190815260200160002060000160159054906101000a900460ff16156105a6576040517f08c379a000000000000000000000000000000000000000000000000000000000815260040161059d90611536565b60405180910390fd5b600160008381526020019081526020016000206002015442101580156105e2575060016000838152602001908152602001600020600301544211155b610621576040517f08c379a0000000000000000000000000000000000000000000000000000000008152600401610618906115a2565b60405180910390fd5b6001600083815260200190815260200160002060050160003373ffffffffffffffffffffffffffffffffffffffff1673ffffffffffffffffffffffffffffffffffffffff168152602001908152602001600020600201546001600084815260200190815260200160002060060154146106cf576040517f08c379a00000000000000000000000000000000000000000000000000000000081526004016106c690611634565b60405180910390fd5b600180600084815260200190815260200160002060050160003373ffffffffffffffffffffffffffffffffffffffff1673ffffffffffffffffffffffffffffffffffffffff16815260200190815260200160002060000160156101000a81548160ff021916908315150217905550806001600084815260200190815260200160002060050160003373ffffffffffffffffffffffffffffffffffffffff1673ffffffffffffffffffffffffffffffffffffffff168152602001908152602001600020600101819055506001806000848152602001908152602001600020600401600083815260200190815260200160002060010160008282546107d29190611683565b925050819055505050565b600060016000838152602001908152602001600020600701549050919050565b6001602052806000526040600020600091509050806000018054610820906116e6565b80601f016020809104026020016040519081016040528092919081815260200182805461084c906116e6565b80156108995780601f1061086e57610100808354040283529160200191610899565b820191906000526020600020905b81548152906001019060200180831161087c57829003601f168201915b5050505050908060010154908060020154908060030154908060060154908060070154905086565b606060008267ffffffffffffffff8111156108df576108de610fc2565b5b60405190808252806020026020018201604052801561090d5781602001602082028036833780820191505090505b50905060005b83811015610972576001600086815260200190815260200160002060040160008281526020019081526020016000206001015482828151811061095957610958611717565b5b6020026020010181815250508080600101915050610913565b508091505092915050565b60008054906101000a900473ffffffffffffffffffffffffffffffffffffffff1673ffffffffffffffffffffffffffffffffffffffff163373ffffffffffffffffffffffffffffffffffffffff1614610a0b576040517f08c379a0000000000000000000000000000000000000000000000000000000008152600401610a029061133a565b60405180910390fd5b85600160008881526020019081526020016000206001018190555084600160008881526020019081526020016000206000019081610a4991906118f2565b508342610a569190611683565b6001600088815260200190815260200160002060020181905550826001600088815260200190815260200160002060020154610a929190611683565b60016000888152602001908152602001600020600301819055508160016000888152602001908152602001600020600601819055508051600160008881526020019081526020016000206007018190555060005b8151811015610b76576040518060400160405280838381518110610b0d57610b0c611717565b5b6020026020010151815260200160008152506001600089815260200190815260200160002060040160008381526020019081526020016000206000820151816000019081610b5b91906118f2565b50602082015181600101559050508080600101915050610ae6565b50505050505050565b60606000806001600086815260200190815260200160002060040160008581526020019081526020016000209050806000018160010154818054610bc2906116e6565b80601f0160208091040260200160405190810160405280929190818152602001828054610bee906116e6565b8015610c3b5780601f10610c1057610100808354040283529160200191610c3b565b820191906000526020600020905b815481529060010190602001808311610c1e57829003601f168201915b5050505050915092509250509250929050565b6000604051905090565b600080fd5b600080fd5b6000819050919050565b610c7581610c62565b8114610c8057600080fd5b50565b600081359050610c9281610c6c565b92915050565b600073ffffffffffffffffffffffffffffffffffffffff82169050919050565b6000610cc382610c98565b9050919050565b610cd381610cb8565b8114610cde57600080fd5b50565b600081359050610cf081610cca565b92915050565b600080600060608486031215610d0f57610d0e610c58565b5b6000610d1d86828701610c83565b9350506020610d2e86828701610ce1565b9250506040610d3f86828701610c83565b9150509250925092565b60008060408385031215610d6057610d5f610c58565b5b6000610d6e85828601610c83565b9250506020610d7f85828601610c83565b9150509250929050565b600060208284031215610d9f57610d9e610c58565b5b6000610dad84828501610c83565b91505092915050565b610dbf81610c62565b82525050565b6000602082019050610dda6000830184610db6565b92915050565b600081519050919050565b600082825260208201905092915050565b60005b83811015610e1a578082015181840152602081019050610dff565b60008484015250505050565b6000601f19601f8301169050919050565b6000610e4282610de0565b610e4c8185610deb565b9350610e5c818560208601610dfc565b610e6581610e26565b840191505092915050565b600060c0820190508181036000830152610e8a8189610e37565b9050610e996020830188610db6565b610ea66040830187610db6565b610eb36060830186610db6565b610ec06080830185610db6565b610ecd60a0830184610db6565b979650505050505050565b600081519050919050565b600082825260208201905092915050565b6000819050602082019050919050565b610f0d81610c62565b82525050565b6000610f1f8383610f04565b60208301905092915050565b6000602082019050919050565b6000610f4382610ed8565b610f4d8185610ee3565b9350610f5883610ef4565b8060005b83811015610f89578151610f708882610f13565b9750610f7b83610f2b565b925050600181019050610f5c565b5085935050505092915050565b60006020820190508181036000830152610fb08184610f38565b905092915050565b600080fd5b600080fd5b7f4e487b7100000000000000000000000000000000000000000000000000000000600052604160045260246000fd5b610ffa82610e26565b810181811067ffffffffffffffff8211171561101957611018610fc2565b5b80604052505050565b600061102c610c4e565b90506110388282610ff1565b919050565b600067ffffffffffffffff82111561105857611057610fc2565b5b61106182610e26565b9050602081019050919050565b82818337600083830152505050565b600061109061108b8461103d565b611022565b9050828152602081018484840111156110ac576110ab610fbd565b5b6110b784828561106e565b509392505050565b600082601f8301126110d4576110d3610fb8565b5b81356110e484826020860161107d565b91505092915050565b600067ffffffffffffffff82111561110857611107610fc2565b5b602082029050602081019050919050565b600080fd5b600061113161112c846110ed565b611022565b9050808382526020820190506020840283018581111561115457611153611119565b5b835b8181101561119b57803567ffffffffffffffff81111561117957611178610fb8565b5b80860161118689826110bf565b85526020850194505050602081019050611156565b5050509392505050565b600082601f8301126111ba576111b9610fb8565b5b81356111ca84826020860161111e565b91505092915050565b60008060008060008060c087890312156111f0576111ef610c58565b5b60006111fe89828a01610c83565b965050602087013567ffffffffffffffff81111561121f5761121e610c5d565b5b61122b89828a016110bf565b955050604061123c89828a01610c83565b945050606061124d89828a01610c83565b935050608061125e89828a01610c83565b92505060a087013567ffffffffffffffff81111561127f5761127e610c5d565b5b61128b89828a016111a5565b9150509295509295509295565b600060408201905081810360008301526112b28185610e37565b90506112c16020830184610db6565b9392505050565b7f4f6e6c79207468652041646d696e6973747261746f7220616c6c6f776564206d60008201527f616b65207468697320616374696f6e0000000000000000000000000000000000602082015250565b6000611324602f83610deb565b915061132f826112c8565b604082019050919050565b6000602082019050818103600083015261135381611317565b9050919050565b7f566f74696e672074696d652068617320656e6465642e00000000000000000000600082015250565b6000611390601683610deb565b915061139b8261135a565b602082019050919050565b600060208201905081810360008301526113bf81611383565b9050919050565b7f54686520766f74657220657869737420616c726561647920617420746865207360008201527f797374656d2e0000000000000000000000000000000000000000000000000000602082015250565b6000611422602683610deb565b915061142d826113c6565b604082019050919050565b6000602082019050818103600083015261145181611415565b9050919050565b7f566f746572206973206e6f74207265676973746572656420666f72207468697360008201527f20766f74652e0000000000000000000000000000000000000000000000000000602082015250565b60006114b4602683610deb565b91506114bf82611458565b604082019050919050565b600060208201905081810360008301526114e3816114a7565b9050919050565b7f566f7465722068617320616c726561647920766f7465642e0000000000000000600082015250565b6000611520601883610deb565b915061152b826114ea565b602082019050919050565b6000602082019050818103600083015261154f81611513565b9050919050565b7f566f74696e67206973206e6f742063757272656e746c79206163746976652e00600082015250565b600061158c601f83610deb565b915061159782611556565b602082019050919050565b600060208201905081810360008301526115bb8161157f565b9050919050565b7f566f746572206973206e6f742070617274206f66207468652067726f7570206660008201527f6f72207468697320766f74652e00000000000000000000000000000000000000602082015250565b600061161e602d83610deb565b9150611629826115c2565b604082019050919050565b6000602082019050818103600083015261164d81611611565b9050919050565b7f4e487b7100000000000000000000000000000000000000000000000000000000600052601160045260246000fd5b600061168e82610c62565b915061169983610c62565b92508282019050808211156116b1576116b0611654565b5b92915050565b7f4e487b7100000000000000000000000000000000000000000000000000000000600052602260045260246000fd5b600060028204905060018216806116fe57607f821691505b602082108103611711576117106116b7565b5b50919050565b7f4e487b7100000000000000000000000000000000000000000000000000000000600052603260045260246000fd5b60008190508160005260206000209050919050565b60006020601f8301049050919050565b600082821b905092915050565b6000600883026117a87fffffffffffffffffffffffffffffffffffffffffffffffffffffffffffffffff8261176b565b6117b2868361176b565b95508019841693508086168417925050509392505050565b6000819050919050565b60006117ef6117ea6117e584610c62565b6117ca565b610c62565b9050919050565b6000819050919050565b611809836117d4565b61181d611815826117f6565b848454611778565b825550505050565b600090565b611832611825565b61183d818484611800565b505050565b5b818110156118615761185660008261182a565b600181019050611843565b5050565b601f8211156118a65761187781611746565b6118808461175b565b8101602085101561188f578190505b6118a361189b8561175b565b830182611842565b50505b505050565b600082821c905092915050565b60006118c9600019846008026118ab565b1980831691505092915050565b60006118e283836118b8565b9150826002028217905092915050565b6118fb82610de0565b67ffffffffffffffff81111561191457611913610fc2565b5b61191e82546116e6565b611929828285611865565b600060209050601f83116001811461195c576000841561194a578287015190505b61195485826118d6565b8655506119bc565b601f19841661196a86611746565b60005b828110156119925784890151825560018201915060208501945060208101905061196d565b868310156119af57848901516119ab601f8916826118b8565b8355505b6001600288020188555050505b50505050505056fea264697066735822122027765085e0b19a8775aee2c6ce3e76e5493615d3bedd858c5a44cc7d0a5b045264736f6c63430008180033",
  "linkReferences": {},
  "deployedLinkReferences": {}
}